:10000000F2C0ACC209C108C107C106C105C104C123
:1000100003C102C101C100C1FFC0FEC0FDC0FCC0E0
:10002000FBC0FAC0F9C00403090412036F006200A8
:100030006400650076002E00610074002003530008
:1000400065007200690061006C0020004B006500D3
:10005000790062006F0061007200640012011001FB
:1000600000000008424231E10001010200010902E2
:100070002200010100803209040000010300000099
:100080000921010100012223000705810308000A5C
:1000900005010906A101050719E029E71500250159
:1000A0007501950881029501750825651900296576
:1000B0008100C000000104010501060107010801DB
:1000C00009010A002A002B010D010E010F00280171
:1000D0001101120113011401150116011701180174
:1000E00019011A011B011C011D002900000000005C
:1000F000000000002C021E02340220022102220213
:10010000240034022602270225022E0036002D008C
:100110003700380027001E001F00200021002200A9
:1001200023002400250026023300330236002E026D
:10013000370238021F020402050206020702080203
:1001400009020A020B020C020D020E020F0210023B
:1001500011021202130214021502160217021802EB
:1001600019021A021B021C021D002F00310030026E
:1001700023022D00350004000500060007000800DA
:1001800009000A000B000C000D000E000F0010000B
:1001900011001200130014001500160017001800BB
:1001A00019001A001B001C001D022F023102300230
:1001B000350000003A003B003C003D003E003F009F
:1001C0004000410042004300440045004A00520004
:1001D0004B000000500000004F0000004D00510097
:1001E0004E0049004C0011241FBECFEDCDBF10E0E2
:1001F000A0E6B0E0E0E9F7E002C005900D92A2367B
:10020000B107D9F710E0A2E6B0E001C01D92AE3907
:10021000B107E1F757D1BAC2F3CE85B7826085BF87
:100220008BB780648BBF8BE4809372008AE58093E8
:1002300071000895FC0184E690E090938300809320
:100240008200808180768032B1F48181813011F426
:1002500082E00895823041F483E690E09093830039
:100260008093820081E008958A3029F4838180930D
:10027000630080E0089580E008951F93CF93DF939B
:1002800090918400935097FDA1C020917F008091B0
:100290007E008D3209F098C0983009F095C0CCE00E
:1002A000D0E0C21BD109C857DF4F83EC80936600B2
:1002B0008AE580936000109262008881807621F048
:1002C000CE01B8DF282F77C09A8110926F00898104
:1002D000882321F41092700022E067C0853019F461
:1002E0009093850061C0863009F04AC08B818130CF
:1002F00019F48CE590E01BC0823041F48EE690E06A
:10030000909383008093820022E236C08330F9F418
:100310008A81882341F486E290E090938300809361
:10032000820024E029C0813041F48AE290E0909379
:1003300083008093820022E11FC08230E1F48CE3CD
:1003400090E0909383008093820020E215C0813278
:1003500041F480E890E0909383008093820029E04C
:100360000BC0823241F480E990E090938300809347
:10037000820023E201C020E080E4809362001BC081
:10038000883021F421E087E890E011C0893019F429
:100390009093870009C08A3011F421E006C08B30A9
:1003A00019F48BE48093720020E08FE690E0909344
:1003B0008300809382008F81882321F48E818217AD
:1003C00008F4282F2093610010928400809160002F
:1003D00084FF49C0809161008F3F09F444C0182F09
:1003E000893008F018E0811B8093610080916600DD
:1003F00098E8892780936600112341F120918200BB
:10040000309183008091620086FF0DC0A7E6B0E0C6
:1004100080E090E0F901E80FF91FE491ED93019677
:100420001817C1F708C0912FD901E7E6F0E08D91C8
:1004300081939150E1F71150812F90E01F5F019659
:10044000820F931F909383008093820087E690E051
:10045000612F80D0612F6C5F6C3019F08FEF80932B
:1004600061006093600094E180B38C7031F491502E
:10047000D9F71092850010927D00DF91CF911F91E6
:1004800008951F93DC01162F8091710084FF07C02F
:100490008091720098E889278093720003C08AE5F2
:1004A00080937100912FE3E7F0E08D91819391505B
:1004B000E1F783E790E0612F4DD01C5F109371004E
:1004C0001F910895109281001092800080E18AB9F6
:1004D00086E083B980E489B9A0DE7894CEDE80918D
:1004E000710084FFFBCF5F9B17C08CB190E09093AD
:1004F000810080938000880F991FFC01ED54FF4F0D
:100500002591349120936400FC01EC54FF4F8591B8
:1005100094918093650004C010926400109265006D
:1005200084E690E062E0ADDFD9CFA82FB92F80E05C
:1005300090E041E050EA609530E009C02D918227BB
:100540009795879510F084279527305EC8F36F5FE5
:10055000A8F30895EADF8D939D930895CF93CFB7C5
:10056000CF93DF93C395839BE9F7839B11C0839B54
:100570000FC0839B0DC0839B0BC0839B09C0839BD3
:1005800007C0839B05C0839B03C0839B01C083C0BE
:100590006F93C0917F00DD27C857DF4F2F9320E472
:1005A00000C065E0839B03C02F916F91DECF0F9356
:1005B0001F934F9345E55F9355E53F933BE014E070
:1005C00000B30C702EC06A95C9F03150D8F100B359
:1005D0000C7001130BC008942795299320E45555FE
:1005E00000F46A9569F701E060B30BC0102F66E074
:1005F0002695299320E4555518F3E2CF0FEF60B309
:100600000000162F455500F0404066E01C70003099
:10061000E2F221F0000000B30C7003C000B30C70D4
:10062000A9F0011309C00894279568F200C06A95E3
:10063000A9F700E060B3E5CF102F66E0269528F219
:100640000000ECCF10E41ABF002719C03B503195D1
:10065000C31BD04010E41ABF0881033C09F10B34DE
:10066000F9F020917D001981110F1213EDCF4A810D
:10067000441F093651F10D3211F0013E29F7009364
:1006800086003F915F914F911F910F912F916F9134
:10069000CAB7C6FD67CFDF91CF91CFBFCF91189575
:1006A00020918600222369F310918400112381F5A3
:1006B000343082F13093840020937E0010917F00CB
:1006C0003BE0311B30937F0025C000918400013056
:1006D000FCF40AE54F7049F43091600034FD1BC012
:1006E00000936000C6E6D0E01AC03091710034FD7E
:1006F00012C000937100C2E7D0E011C0052710E0DE
:1007000000C002BB19C0052710E0221F00C01DC099
:100710004AE502C032ED432FC4E1D0E032E011B32C
:100720001C60939A02B311BB5CE020E869E420FFEF
:10073000052702BB2795179500C000001C3FF0F667
:100740006695A8F7A1F720FF052702BB2795179507
:1007500000001C3FC0F629913A9541F7037F1091A4
:100760008500110F02BBC651D04011F010937D00DF
:1007700010E41ABF086011B3137F402F437F55E088
:100780005A95F1F702BB11BB42BB7BCFF894FFCF68
:020790005AFF0E
:00000001FF
